{
  "address": "0x2ADC1EF82E8CEcd481CDEC3B0b6FD9F8B6Cf1090",
  "abi": [
    {
      "inputs": [
        {
          "internalType": "address",
          "name": "ownerAddress",
          "type": "address"
        }
      ],
      "stateMutability": "nonpayable",
      "type": "constructor"
    },
    {
      "anonymous": false,
      "inputs": [
        {
          "indexed": true,
          "internalType": "address",
          "name": "user",
          "type": "address"
        },
        {
          "indexed": false,
          "internalType": "string",
          "name": "badge",
          "type": "string"
        }
      ],
      "name": "BadgeAwarded",
      "type": "event"
    },
    {
      "anonymous": false,
      "inputs": [
        {
          "indexed": true,
          "internalType": "uint256",
          "name": "lotteryId",
          "type": "uint256"
        },
        {
          "indexed": false,
          "internalType": "string",
          "name": "newBannerCID",
          "type": "string"
        }
      ],
      "name": "BannerCIDUpdated",
      "type": "event"
    },
    {
      "anonymous": false,
      "inputs": [
        {
          "indexed": true,
          "internalType": "uint256",
          "name": "lotteryId",
          "type": "uint256"
        },
        {
          "indexed": false,
          "internalType": "string",
          "name": "name",
          "type": "string"
        },
        {
          "indexed": false,
          "internalType": "address",
          "name": "charity",
          "type": "address"
        },
        {
          "indexed": false,
          "internalType": "uint256",
          "name": "endTime",
          "type": "uint256"
        }
      ],
      "name": "LotteryCreated",
      "type": "event"
    },
    {
      "anonymous": false,
      "inputs": [
        {
          "indexed": true,
          "internalType": "uint256",
          "name": "lotteryId",
          "type": "uint256"
        },
        {
          "indexed": false,
          "internalType": "string",
          "name": "name",
          "type": "string"
        },
        {
          "indexed": false,
          "internalType": "string",
          "name": "description",
          "type": "string"
        },
        {
          "indexed": false,
          "internalType": "uint256",
          "name": "ticketPrice",
          "type": "uint256"
        },
        {
          "indexed": false,
          "internalType": "address",
          "name": "charity",
          "type": "address"
        },
        {
          "indexed": false,
          "internalType": "address[]",
          "name": "participants",
          "type": "address[]"
        },
        {
          "indexed": false,
          "internalType": "address",
          "name": "winner",
          "type": "address"
        },
        {
          "indexed": false,
          "internalType": "bytes32",
          "name": "txId",
          "type": "bytes32"
        },
        {
          "indexed": false,
          "internalType": "string",
          "name": "bannerCID",
          "type": "string"
        }
      ],
      "name": "LotteryEnded",
      "type": "event"
    },
    {
      "anonymous": false,
      "inputs": [
        {
          "indexed": true,
          "internalType": "address",
          "name": "previousOwner",
          "type": "address"
        },
        {
          "indexed": true,
          "internalType": "address",
          "name": "newOwner",
          "type": "address"
        }
      ],
      "name": "OwnershipTransferred",
      "type": "event"
    },
    {
      "anonymous": false,
      "inputs": [
        {
          "indexed": false,
          "internalType": "uint256",
          "name": "amount",
          "type": "uint256"
        }
      ],
      "name": "PrizePoolDeposited",
      "type": "event"
    },
    {
      "anonymous": false,
      "inputs": [
        {
          "indexed": true,
          "internalType": "uint256",
          "name": "lotteryId",
          "type": "uint256"
        },
        {
          "indexed": true,
          "internalType": "address",
          "name": "participant",
          "type": "address"
        },
        {
          "indexed": false,
          "internalType": "uint256",
          "name": "quantity",
          "type": "uint256"
        }
      ],
      "name": "TicketPurchased",
      "type": "event"
    },
    {
      "anonymous": false,
      "inputs": [
        {
          "indexed": true,
          "internalType": "uint256",
          "name": "lotteryId",
          "type": "uint256"
        },
        {
          "indexed": true,
          "internalType": "address",
          "name": "winner",
          "type": "address"
        },
        {
          "indexed": false,
          "internalType": "uint256",
          "name": "prizeAmount",
          "type": "uint256"
        }
      ],
      "name": "WinnerSelected",
      "type": "event"
    },
    {
      "inputs": [
        {
          "internalType": "uint256",
          "name": "quantity",
          "type": "uint256"
        }
      ],
      "name": "buyTicket",
      "outputs": [],
      "stateMutability": "payable",
      "type": "function"
    },
    {
      "inputs": [
        {
          "internalType": "uint256",
          "name": "",
          "type": "uint256"
        }
      ],
      "name": "charityRecords",
      "outputs": [
        {
          "internalType": "address",
          "name": "charity",
          "type": "address"
        },
        {
          "internalType": "uint256",
          "name": "amount",
          "type": "uint256"
        },
        {
          "internalType": "uint256",
          "name": "timestamp",
          "type": "uint256"
        }
      ],
      "stateMutability": "view",
      "type": "function"
    },
    {
      "inputs": [
        {
          "internalType": "string",
          "name": "name",
          "type": "string"
        },
        {
          "internalType": "string",
          "name": "description",
          "type": "string"
        },
        {
          "internalType": "string",
          "name": "bannerCID",
          "type": "string"
        },
        {
          "internalType": "string",
          "name": "winnerNFTCID",
          "type": "string"
        },
        {
          "internalType": "string",
          "name": "participantNFTCID",
          "type": "string"
        },
        {
          "internalType": "uint256",
          "name": "ticketPrice",
          "type": "uint256"
        },
        {
          "internalType": "address",
          "name": "charity",
          "type": "address"
        },
        {
          "internalType": "uint256",
          "name": "duration",
          "type": "uint256"
        }
      ],
      "name": "createLottery",
      "outputs": [],
      "stateMutability": "nonpayable",
      "type": "function"
    },
    {
      "inputs": [],
      "name": "currentLottery",
      "outputs": [
        {
          "internalType": "uint256",
          "name": "id",
          "type": "uint256"
        },
        {
          "internalType": "string",
          "name": "name",
          "type": "string"
        },
        {
          "internalType": "string",
          "name": "description",
          "type": "string"
        },
        {
          "internalType": "string",
          "name": "bannerCID",
          "type": "string"
        },
        {
          "internalType": "string",
          "name": "winnerNFTCID",
          "type": "string"
        },
        {
          "internalType": "string",
          "name": "participantNFTCID",
          "type": "string"
        },
        {
          "internalType": "uint256",
          "name": "ticketPrice",
          "type": "uint256"
        },
        {
          "internalType": "address",
          "name": "charity",
          "type": "address"
        },
        {
          "internalType": "address",
          "name": "winner",
          "type": "address"
        },
        {
          "internalType": "bool",
          "name": "isActive",
          "type": "bool"
        },
        {
          "internalType": "uint256",
          "name": "endTime",
          "type": "uint256"
        }
      ],
      "stateMutability": "view",
      "type": "function"
    },
    {
      "inputs": [],
      "name": "currentLotteryId",
      "outputs": [
        {
          "internalType": "uint256",
          "name": "",
          "type": "uint256"
        }
      ],
      "stateMutability": "view",
      "type": "function"
    },
    {
      "inputs": [],
      "name": "depositPrizePool",
      "outputs": [],
      "stateMutability": "payable",
      "type": "function"
    },
    {
      "inputs": [],
      "name": "endLotteryEarly",
      "outputs": [],
      "stateMutability": "nonpayable",
      "type": "function"
    },
    {
      "inputs": [],
      "name": "getBannerCID",
      "outputs": [
        {
          "internalType": "string",
          "name": "",
          "type": "string"
        }
      ],
      "stateMutability": "view",
      "type": "function"
    },
    {
      "inputs": [],
      "name": "getCharity",
      "outputs": [
        {
          "internalType": "address",
          "name": "",
          "type": "address"
        }
      ],
      "stateMutability": "view",
      "type": "function"
    },
    {
      "inputs": [],
      "name": "getCharityRecords",
      "outputs": [
        {
          "components": [
            {
              "internalType": "address",
              "name": "charity",
              "type": "address"
            },
            {
              "internalType": "uint256",
              "name": "amount",
              "type": "uint256"
            },
            {
              "internalType": "uint256",
              "name": "timestamp",
              "type": "uint256"
            }
          ],
          "internalType": "struct LottusLottery.CharityRecord[]",
          "name": "",
          "type": "tuple[]"
        }
      ],
      "stateMutability": "view",
      "type": "function"
    },
    {
      "inputs": [],
      "name": "getDescription",
      "outputs": [
        {
          "internalType": "string",
          "name": "",
          "type": "string"
        }
      ],
      "stateMutability": "view",
      "type": "function"
    },
    {
      "inputs": [],
      "name": "getLastPrizeDetails",
      "outputs": [
        {
          "internalType": "uint256",
          "name": "",
          "type": "uint256"
        },
        {
          "internalType": "uint256",
          "name": "",
          "type": "uint256"
        }
      ],
      "stateMutability": "view",
      "type": "function"
    },
    {
      "inputs": [],
      "name": "getParticipantNFTCID",
      "outputs": [
        {
          "internalType": "string",
          "name": "",
          "type": "string"
        }
      ],
      "stateMutability": "view",
      "type": "function"
    },
    {
      "inputs": [],
      "name": "getParticipants",
      "outputs": [
        {
          "internalType": "address[]",
          "name": "",
          "type": "address[]"
        }
      ],
      "stateMutability": "view",
      "type": "function"
    },
    {
      "inputs": [],
      "name": "getPrizePool",
      "outputs": [
        {
          "internalType": "uint256",
          "name": "",
          "type": "uint256"
        }
      ],
      "stateMutability": "view",
      "type": "function"
    },
    {
      "inputs": [
        {
          "internalType": "address",
          "name": "user",
          "type": "address"
        }
      ],
      "name": "getUserBadges",
      "outputs": [
        {
          "internalType": "string[]",
          "name": "",
          "type": "string[]"
        }
      ],
      "stateMutability": "view",
      "type": "function"
    },
    {
      "inputs": [
        {
          "internalType": "address",
          "name": "user",
          "type": "address"
        }
      ],
      "name": "getUserLevel",
      "outputs": [
        {
          "internalType": "uint256",
          "name": "",
          "type": "uint256"
        }
      ],
      "stateMutability": "view",
      "type": "function"
    },
    {
      "inputs": [],
      "name": "getWinner",
      "outputs": [
        {
          "internalType": "address",
          "name": "",
          "type": "address"
        }
      ],
      "stateMutability": "view",
      "type": "function"
    },
    {
      "inputs": [],
      "name": "getWinnerNFTCID",
      "outputs": [
        {
          "internalType": "string",
          "name": "",
          "type": "string"
        }
      ],
      "stateMutability": "view",
      "type": "function"
    },
    {
      "inputs": [],
      "name": "getWinnerRecords",
      "outputs": [
        {
          "components": [
            {
              "internalType": "address",
              "name": "winner",
              "type": "address"
            },
            {
              "internalType": "uint256",
              "name": "amount",
              "type": "uint256"
            },
            {
              "internalType": "uint256",
              "name": "timestamp",
              "type": "uint256"
            }
          ],
          "internalType": "struct LottusLottery.WinnerRecord[]",
          "name": "",
          "type": "tuple[]"
        }
      ],
      "stateMutability": "view",
      "type": "function"
    },
    {
      "inputs": [
        {
          "internalType": "address",
          "name": "user",
          "type": "address"
        },
        {
          "internalType": "string",
          "name": "badge",
          "type": "string"
        }
      ],
      "name": "hasBadge",
      "outputs": [
        {
          "internalType": "bool",
          "name": "",
          "type": "bool"
        }
      ],
      "stateMutability": "view",
      "type": "function"
    },
    {
      "inputs": [],
      "name": "isLotteryActive",
      "outputs": [
        {
          "internalType": "bool",
          "name": "",
          "type": "bool"
        }
      ],
      "stateMutability": "view",
      "type": "function"
    },
    {
      "inputs": [],
      "name": "lastCharityAmount",
      "outputs": [
        {
          "internalType": "uint256",
          "name": "",
          "type": "uint256"
        }
      ],
      "stateMutability": "view",
      "type": "function"
    },
    {
      "inputs": [],
      "name": "lastPrizeAmount",
      "outputs": [
        {
          "internalType": "uint256",
          "name": "",
          "type": "uint256"
        }
      ],
      "stateMutability": "view",
      "type": "function"
    },
    {
      "inputs": [],
      "name": "owner",
      "outputs": [
        {
          "internalType": "address",
          "name": "",
          "type": "address"
        }
      ],
      "stateMutability": "view",
      "type": "function"
    },
    {
      "inputs": [
        {
          "internalType": "uint256",
          "name": "",
          "type": "uint256"
        }
      ],
      "name": "participants",
      "outputs": [
        {
          "internalType": "address",
          "name": "",
          "type": "address"
        }
      ],
      "stateMutability": "view",
      "type": "function"
    },
    {
      "inputs": [
        {
          "internalType": "address",
          "name": "",
          "type": "address"
        }
      ],
      "name": "participantsMap",
      "outputs": [
        {
          "internalType": "bool",
          "name": "",
          "type": "bool"
        }
      ],
      "stateMutability": "view",
      "type": "function"
    },
    {
      "inputs": [],
      "name": "renounceOwnership",
      "outputs": [],
      "stateMutability": "nonpayable",
      "type": "function"
    },
    {
      "inputs": [
        {
          "internalType": "address",
          "name": "newOwner",
          "type": "address"
        }
      ],
      "name": "transferOwnership",
      "outputs": [],
      "stateMutability": "nonpayable",
      "type": "function"
    },
    {
      "inputs": [
        {
          "internalType": "string",
          "name": "newBannerCID",
          "type": "string"
        }
      ],
      "name": "updateBannerCID",
      "outputs": [],
      "stateMutability": "nonpayable",
      "type": "function"
    },
    {
      "inputs": [
        {
          "internalType": "address",
          "name": "",
          "type": "address"
        }
      ],
      "name": "users",
      "outputs": [
        {
          "internalType": "uint256",
          "name": "level",
          "type": "uint256"
        },
        {
          "internalType": "uint256",
          "name": "participationCount",
          "type": "uint256"
        },
        {
          "internalType": "uint256",
          "name": "totalDonations",
          "type": "uint256"
        },
        {
          "internalType": "uint256",
          "name": "totalSpent",
          "type": "uint256"
        }
      ],
      "stateMutability": "view",
      "type": "function"
    },
    {
      "inputs": [
        {
          "internalType": "uint256",
          "name": "",
          "type": "uint256"
        }
      ],
      "name": "winnerRecords",
      "outputs": [
        {
          "internalType": "address",
          "name": "winner",
          "type": "address"
        },
        {
          "internalType": "uint256",
          "name": "amount",
          "type": "uint256"
        },
        {
          "internalType": "uint256",
          "name": "timestamp",
          "type": "uint256"
        }
      ],
      "stateMutability": "view",
      "type": "function"
    }
  ],
  "transactionHash": "0x5fa8b250f2beab1976319c5cee68fcbb0bf96d5a60d59d1c829b4ad213d5d922",
  "args": [
    "0xbbe43612b9B577d5d9cB786324880c01d5792Ebc"
  ],
  "numDeployments": 1,
  "solcInputHash": "fe14c05a479edb2315d1de2c5c783509",
  "bytecode": "0x60806040523480156200001157600080fd5b5060405162002acb38038062002acb833981016040819052620000349162000187565b6200003f3362000056565b6200004a81620000a6565b506000600c55620001b9565b600080546001600160a01b038381166001600160a01b0319831681178455604051919092169283917f8be0079c531659141344cd1fd0a4f28419497f9722a3daafe3b4186f6b6457e09190a35050565b620000b062000129565b6001600160a01b0381166200011b5760405162461bcd60e51b815260206004820152602660248201527f4f776e61626c653a206e6577206f776e657220697320746865207a65726f206160448201526564647265737360d01b60648201526084015b60405180910390fd5b620001268162000056565b50565b6000546001600160a01b03163314620001855760405162461bcd60e51b815260206004820181905260248201527f4f776e61626c653a2063616c6c6572206973206e6f7420746865206f776e6572604482015260640162000112565b565b6000602082840312156200019a57600080fd5b81516001600160a01b0381168114620001b257600080fd5b9392505050565b61290280620001c96000396000f3fe6080604052600436106101e35760003560e01c80636be4097c116101025780639bac3b9f11610095578063c3b69ebb11610064578063c3b69ebb146105d2578063d6f5ef0e146105f1578063dd1445bb1461060f578063f2fde38b1461062f57600080fd5b80639bac3b9f146104f45780639dfea26014610509578063a87430ba1461052b578063abc845dc1461058d57600080fd5b8063884bf67c116100d1578063884bf67c1461048d5780638da5cb5b146104a25780638e7ea5b2146104c057806399ea5259146104de57600080fd5b80636be4097c146104385780636d8915861461044e578063715018a614610456578063758a2c381461046b57600080fd5b806337c245fe1161017a578063537a0c6211610149578063537a0c62146103be57806357de1f7d146103ee5780635aa68ac01461040357806367dd74ca1461042557600080fd5b806337c245fe1461034657806338d6904d146103735780634933da181461038957806351e730f0146103a957600080fd5b806321923bde116101b657806321923bde1461027657806325f8c8cb146102ba5780632bd56b06146102e257806335c1d3491461030e57600080fd5b8063107b70fa146101e85780631533794d1461021d5780631a0925411461023f5780631b11d14914610254575b600080fd5b3480156101f457600080fd5b5061020861020336600461206e565b61064f565b60405190151581526020015b60405180910390f35b34801561022957600080fd5b50610232610697565b604051610214919061210c565b34801561024b57600080fd5b5061023261072c565b34801561026057600080fd5b5061027461026f366004612126565b61073e565b005b34801561028257600080fd5b506102ac610291366004612163565b6001600160a01b031660009081526012602052604090205490565b604051908152602001610214565b3480156102c657600080fd5b5060105460115460408051928352602083019190915201610214565b3480156102ee57600080fd5b506102f76107c3565b6040516102149b9a9998979695949392919061217e565b34801561031a57600080fd5b5061032e610329366004612223565b610ac4565b6040516001600160a01b039091168152602001610214565b34801561035257600080fd5b50610366610361366004612163565b610aee565b604051610214919061223c565b34801561037f57600080fd5b506102ac60115481565b34801561039557600080fd5b506102746103a436600461229e565b610be0565b3480156103b557600080fd5b50610232610f3c565b3480156103ca57600080fd5b506102086103d9366004612163565b60136020526000908152604090205460ff1681565b3480156103fa57600080fd5b50610232610f4e565b34801561040f57600080fd5b50610418610f60565b6040516102149190612394565b610274610433366004612223565b610fc1565b34801561044457600080fd5b506102ac600c5481565b610274611614565b34801561046257600080fd5b506102746116ad565b34801561047757600080fd5b506104806116c1565b60405161021491906123e1565b34801561049957600080fd5b506102ac611743565b3480156104ae57600080fd5b506000546001600160a01b031661032e565b3480156104cc57600080fd5b50600a546001600160a01b031661032e565b3480156104ea57600080fd5b506102ac60105481565b34801561050057600080fd5b50610274611761565b34801561051557600080fd5b5061051e611888565b6040516102149190612440565b34801561053757600080fd5b5061056d610546366004612163565b60126020526000908152604090208054600182015460028301546003909301549192909184565b604080519485526020850193909352918301526060820152608001610214565b34801561059957600080fd5b506105ad6105a8366004612223565b611900565b604080516001600160a01b039094168452602084019290925290820152606001610214565b3480156105de57600080fd5b50600a54600160a01b900460ff16610208565b3480156105fd57600080fd5b506008546001600160a01b031661032e565b34801561061b57600080fd5b506105ad61062a366004612223565b61193d565b34801561063b57600080fd5b5061027461064a366004612163565b61194d565b6001600160a01b038216600090815260126020526040808220905160049091019061067b90849061249f565b9081526040519081900360200190205460ff1690505b92915050565b6060600160040180546106a9906124bb565b80601f01602080910402602001604051908101604052809291908181526020018280546106d5906124bb565b80156107225780601f106106f757610100808354040283529160200191610722565b820191906000526020600020905b81548152906001019060200180831161070557829003601f168201915b5050505050905090565b6060600160020180546106a9906124bb565b6107466119c3565b600a54600160a01b900460ff166107785760405162461bcd60e51b815260040161076f906124f5565b60405180910390fd5b6004610784828261256f565b506001546040517f7c71c7516f1f9c38abc68822ab033d7a5a104993c86a473974ef01674aef7280906107b890849061210c565b60405180910390a250565b60018054600280549192916107d7906124bb565b80601f0160208091040260200160405190810160405280929190818152602001828054610803906124bb565b80156108505780601f1061082557610100808354040283529160200191610850565b820191906000526020600020905b81548152906001019060200180831161083357829003601f168201915b505050505090806002018054610865906124bb565b80601f0160208091040260200160405190810160405280929190818152602001828054610891906124bb565b80156108de5780601f106108b3576101008083540402835291602001916108de565b820191906000526020600020905b8154815290600101906020018083116108c157829003601f168201915b5050505050908060030180546108f3906124bb565b80601f016020809104026020016040519081016040528092919081815260200182805461091f906124bb565b801561096c5780601f106109415761010080835404028352916020019161096c565b820191906000526020600020905b81548152906001019060200180831161094f57829003601f168201915b505050505090806004018054610981906124bb565b80601f01602080910402602001604051908101604052809291908181526020018280546109ad906124bb565b80156109fa5780601f106109cf576101008083540402835291602001916109fa565b820191906000526020600020905b8154815290600101906020018083116109dd57829003601f168201915b505050505090806005018054610a0f906124bb565b80601f0160208091040260200160405190810160405280929190818152602001828054610a3b906124bb565b8015610a885780601f10610a5d57610100808354040283529160200191610a88565b820191906000526020600020905b815481529060010190602001808311610a6b57829003601f168201915b50505050600683015460078401546009850154600a90950154939491936001600160a01b03918216935090821691600160a01b900460ff16908b565b600d8181548110610ad457600080fd5b6000918252602090912001546001600160a01b0316905081565b6001600160a01b0381166000908152601260209081526040808320600501805482518185028101850190935280835260609492939192909184015b82821015610bd5578382906000526020600020018054610b48906124bb565b80601f0160208091040260200160405190810160405280929190818152602001828054610b74906124bb565b8015610bc15780601f10610b9657610100808354040283529160200191610bc1565b820191906000526020600020905b815481529060010190602001808311610ba457829003601f168201915b505050505081526020019060010190610b29565b505050509050919050565b610be86119c3565b600a54600160a01b900460ff1615610c425760405162461bcd60e51b815260206004820152601d60248201527f50726576696f7573206c6f7474657279207374696c6c20616374697665000000604482015260640161076f565b60008311610c9e5760405162461bcd60e51b815260206004820152602360248201527f5469636b6574207072696365206d75737420626520677265617465722074686160448201526206e20360ec1b606482015260840161076f565b6001600160a01b038216610d035760405162461bcd60e51b815260206004820152602660248201527f4368617269747920616464726573732063616e6e6f74206265207a65726f206160448201526564647265737360d01b606482015260840161076f565b600c8054906000610d1383612645565b9091555060009050610d25824261265e565b9050610d33600d6000611f17565b604051806101800160405280600c5481526020018a8152602001898152602001888152602001878152602001868152602001858152602001846001600160a01b03168152602001600d805480602002602001604051908101604052809291908181526020018280548015610dd057602002820191906000526020600020905b81546001600160a01b03168152600190910190602001808311610db2575b50505091835250506000602080830191909152600160408301819052606090920184905282518255820151600290610e08908261256f565b5060408201516002820190610e1d908261256f565b5060608201516003820190610e32908261256f565b5060808201516004820190610e47908261256f565b5060a08201516005820190610e5c908261256f565b5060c0820151600682015560e08201516007820180546001600160a01b0319166001600160a01b039092169190911790556101008201518051610ea9916008840191602090910190611f35565b506101208201516009820180546101408501511515600160a01b026001600160a81b03199091166001600160a01b039093169290921791909117905561016090910151600a90910155600c546040517f55c7a95501adb871d32c986081b9b3cec1c7cc2fb1e2768ca42b5859b693d7a790610f29908c9087908690612671565b60405180910390a2505050505050505050565b6060600160030180546106a9906124bb565b6060600160050180546106a9906124bb565b6060600d80548060200260200160405190810160405280929190818152602001828054801561072257602002820191906000526020600020905b81546001600160a01b03168152600190910190602001808311610f9a575050505050905090565b600a54600160a01b900460ff16610fea5760405162461bcd60e51b815260040161076f906124f5565b6000811161103a5760405162461bcd60e51b815260206004820152601f60248201527f5175616e74697479206d7573742062652067726561746572207468616e203000604482015260640161076f565b60075461104890829061269f565b34146110965760405162461bcd60e51b815260206004820152601c60248201527f496e636f727265637420746f74616c207469636b657420707269636500000000604482015260640161076f565b3360009081526013602052604090205460ff1661111657336000908152601360209081526040808320805460ff1916600190811790915560129092528220018054916110e183612645565b909155505033600090815260126020526040902060019081015461110591906126cc565b336000908152601260205260409020555b60005b8181101561117557600d80546001810182556000919091527fd7b6990105719101dabeb77144f2a3385c8033acd3af97e9423a695e81ad1eb50180546001600160a01b031916331790558061116d81612645565b915050611119565b50336000908152601260205260408120600301805434929061119890849061265e565b90915550506001546040518281523391907fdbaaf4c87ce30816c961a81d110622a3227ede77953d4383d514ff88ab2e0fd39060200160405180910390a3336000908152601260205260409020600190810154900361121b5761121b33604051806040016040528060088152602001672732bbb1b7b6b2b960c11b815250611a1d565b3360009081526012602052604090206001015460050361126a5761126a3360405180604001604052806013815260200172149959dd5b185c8814185c9d1a58da5c185b9d606a1b815250611a1d565b33600090815260126020526040902060010154600a036112b5576112b5336040518060400160405280600f81526020016e233932b8bab2b73a10283630bcb2b960891b815250611a1d565b3360009081526012602052604090206001015460140361130057611300336040518060400160405280600f81526020016e29b2b0b9b7b732b210283630bcb2b960891b815250611a1d565b3360009081526012602052604090206001015460320361134a5761134a336040518060400160405280600e81526020016d2b32ba32b930b710283630bcb2b960911b815250611a1d565b3360009081526012602052604090206001015460640361138f5761138f336040518060400160405280600981526020016821b2b73a3ab934b7b760b91b815250611a1d565b3360009081526012602052604090206001015460c8036113db576113db336040518060400160405280601081526020016f2237bab136329021b2b73a3ab934b7b760811b815250611a1d565b336000908152601260205260409020600101546101f40361142d5761142d33604051806040016040528060158152602001742430b6331026b4b63632b73734b09026b0b9ba32b960591b815250611a1d565b3360009081526012602052604090206003015467016345785d8a00001161147c5761147c336040518060400160405280600c81526020016b213937b73d32902237b737b960a11b815250611a1d565b336000908152601260205260409020600301546706f05b59d3b20000116114cb576114cb336040518060400160405280600c81526020016b29b4b63b32b9102237b737b960a11b815250611a1d565b33600090815260126020526040902060030154670de0b6b3a76400001161151857611518336040518060400160405280600a81526020016923b7b632102237b737b960b11b815250611a1d565b33600090815260126020526040902060030154671bc16d674ec800001161156957611569336040518060400160405280600e81526020016d283630ba34b73ab6902237b737b960911b815250611a1d565b33600090815260126020526040902060030154674563918244f40000116115b9576115b9336040518060400160405280600d81526020016c2234b0b6b7b732102237b737b960991b815250611a1d565b33600090815260126020526040902060030154678ac7230489e800001161161157611611336040518060400160405280601581526020017413585cdd195c88141a1a5b185b9d1a1c9bdc1a5cdd605a1b815250611a1d565b50565b61161c6119c3565b600034116116785760405162461bcd60e51b815260206004820152602360248201527f4d7573742073656e642045544820746f206465706f736974207072697a6520706044820152621bdbdb60ea1b606482015260840161076f565b6040513481527fd06425bd08236489ef547f062a818a18d708acb3c2b7696e56834dde9c310e4b9060200160405180910390a1565b6116b56119c3565b6116bf6000611b31565b565b6060600f805480602002602001604051908101604052809291908181526020016000905b8282101561173a576000848152602090819020604080516060810182526003860290920180546001600160a01b03168352600180820154848601526002909101549183019190915290835290920191016116e5565b50505050905090565b6000606461175247602861269f565b61175c91906126cc565b905090565b6117696119c3565b600a54600160a01b900460ff166117925760405162461bcd60e51b815260040161076f906124f5565b600d546117d35760405162461bcd60e51b815260206004820152600f60248201526e4e6f207061727469636970616e747360881b604482015260640161076f565b600a805460ff60a01b1916905560006117ea611b81565b90506117f581611bcb565b600154600754600854600a546040805143406020808301919091523360601b6bffffffffffffffffffffffff1916828401528251603481840301815260549092019283905281519101207f095e89e9fba9da30867b2da6229306e2b3387b4694a68dfdd5a635bd61754fb3946107b89460029460039492936001600160a01b0392831693600d939092169160049061275d565b6060600e805480602002602001604051908101604052809291908181526020016000908282101561173a576000848152602090819020604080516060810182526003860290920180546001600160a01b03168352600180820154848601526002909101549183019190915290835290920191016116e5565b600f818154811061191057600080fd5b60009182526020909120600390910201805460018201546002909201546001600160a01b03909116925083565b600e818154811061191057600080fd5b6119556119c3565b6001600160a01b0381166119ba5760405162461bcd60e51b815260206004820152602660248201527f4f776e61626c653a206e6577206f776e657220697320746865207a65726f206160448201526564647265737360d01b606482015260840161076f565b61161181611b31565b6000546001600160a01b031633146116bf5760405162461bcd60e51b815260206004820181905260248201527f4f776e61626c653a2063616c6c6572206973206e6f7420746865206f776e6572604482015260640161076f565b60126000836001600160a01b03166001600160a01b0316815260200190815260200160002060040181604051611a53919061249f565b9081526040519081900360200190205460ff16611b2d576001600160a01b03821660009081526012602052604090819020905160019160040190611a9890849061249f565b9081526040805160209281900383019020805460ff1916931515939093179092556001600160a01b0384166000908152601282529182206005018054600181018255908352912001611aea828261256f565b50816001600160a01b03167f69c934c9cd93691b9435ed4d66ddb36755cce9ce6d0d34f7b5042287510c009682604051611b24919061210c565b60405180910390a25b5050565b600080546001600160a01b038381166001600160a01b0319831681178455604051919092169283917f8be0079c531659141344cd1fd0a4f28419497f9722a3daafe3b4186f6b6457e09190a35050565b600080611b8f600143612813565b4042600d445a3330604051602001611bad9796959493929190612826565b60408051601f19818403018152919052805160209091012092915050565b600d805460009190611bdd90846128a2565b81548110611bed57611bed6128b6565b60009182526020822001546001600160a01b0316915047906064611c1283602861269f565b611c1c91906126cc565b905060006064611c2d84602861269f565b611c3791906126cc565b905060006064611c4885600a61269f565b611c5291906126cc565b905060006064611c6386600a61269f565b611c6d91906126cc565b6040519091506001600160a01b0387169085156108fc029086906000818181858888f19350505050158015611ca6573d6000803e3d6000fd5b506008546040516001600160a01b039091169084156108fc029085906000818181858888f19350505050158015611ce1573d6000803e3d6000fd5b50600080546040516001600160a01b039091169184156108fc02918591818181858888f19350505050158015611d1b573d6000803e3d6000fd5b50600a80546001600160a01b03199081166001600160a01b03898116918217909355604080516060808201835283825260208083018b815242848601818152600e805460018181018355600092835297517fbb7b4a454dc3493923482f07822329ed19e8244eff582cc204f8554c3620c3fd600392830290810180548e16928f169290921790915594517fbb7b4a454dc3493923482f07822329ed19e8244eff582cc204f8554c3620c3fe86015591517fbb7b4a454dc3493923482f07822329ed19e8244eff582cc204f8554c3620c3ff90940193909355865194850187526008548a1685528484018d8152858801838152600f8054808a018255955295517f8d1108e10bcb7c27dddfc02ed9d693a074039d026cf4ea4240b40f7d581ac802949092029384018054909a1691909a161790975596517f8d1108e10bcb7c27dddfc02ed9d693a074039d026cf4ea4240b40f7d581ac80388015590517f8d1108e10bcb7c27dddfc02ed9d693a074039d026cf4ea4240b40f7d581ac80490960195909555601089905560118890555490518881529293919290917ffee5b04775e1cd2311ed22cd00f5d2403aff38ff6f71d6d393f51854ed6bc986910160405180910390a3611f0d876040518060400160405280600b81526020016a263ab1b5bcabb4b73732b960a91b815250611a1d565b5050505050505050565b50805460008255906000526020600020908101906116119190611f9a565b828054828255906000526020600020908101928215611f8a579160200282015b82811115611f8a57825182546001600160a01b0319166001600160a01b03909116178255602090920191600190910190611f55565b50611f96929150611f9a565b5090565b5b80821115611f965760008155600101611f9b565b80356001600160a01b0381168114611fc657600080fd5b919050565b634e487b7160e01b600052604160045260246000fd5b600082601f830112611ff257600080fd5b813567ffffffffffffffff8082111561200d5761200d611fcb565b604051601f8301601f19908116603f0116810190828211818310171561203557612035611fcb565b8160405283815286602085880101111561204e57600080fd5b836020870160208301376000602085830101528094505050505092915050565b6000806040838503121561208157600080fd5b61208a83611faf565b9150602083013567ffffffffffffffff8111156120a657600080fd5b6120b285828601611fe1565b9150509250929050565b60005b838110156120d75781810151838201526020016120bf565b50506000910152565b600081518084526120f88160208601602086016120bc565b601f01601f19169290920160200192915050565b60208152600061211f60208301846120e0565b9392505050565b60006020828403121561213857600080fd5b813567ffffffffffffffff81111561214f57600080fd5b61215b84828501611fe1565b949350505050565b60006020828403121561217557600080fd5b61211f82611faf565b60006101608d83528060208401526121988184018e6120e0565b905082810360408401526121ac818d6120e0565b905082810360608401526121c0818c6120e0565b905082810360808401526121d4818b6120e0565b905082810360a08401526121e8818a6120e0565b60c084019890985250506001600160a01b0394851660e082015292909316610100830152151561012082015261014001529695505050505050565b60006020828403121561223557600080fd5b5035919050565b6000602080830181845280855180835260408601915060408160051b870101925083870160005b8281101561229157603f1988860301845261227f8583516120e0565b94509285019290850190600101612263565b5092979650505050505050565b600080600080600080600080610100898b0312156122bb57600080fd5b883567ffffffffffffffff808211156122d357600080fd5b6122df8c838d01611fe1565b995060208b01359150808211156122f557600080fd5b6123018c838d01611fe1565b985060408b013591508082111561231757600080fd5b6123238c838d01611fe1565b975060608b013591508082111561233957600080fd5b6123458c838d01611fe1565b965060808b013591508082111561235b57600080fd5b506123688b828c01611fe1565b94505060a0890135925061237e60c08a01611faf565b915060e089013590509295985092959890939650565b6020808252825182820181905260009190848201906040850190845b818110156123d55783516001600160a01b0316835292840192918401916001016123b0565b50909695505050505050565b6020808252825182820181905260009190848201906040850190845b818110156123d55761242d83855180516001600160a01b0316825260208082015190830152604090810151910152565b92840192606092909201916001016123fd565b6020808252825182820181905260009190848201906040850190845b818110156123d55761248c83855180516001600160a01b0316825260208082015190830152604090810151910152565b928401926060929092019160010161245c565b600082516124b18184602087016120bc565b9190910192915050565b600181811c908216806124cf57607f821691505b6020821081036124ef57634e487b7160e01b600052602260045260246000fd5b50919050565b6020808252601190820152704e6f20616374697665206c6f747465727960781b604082015260600190565b601f82111561256a57600081815260208120601f850160051c810160208610156125475750805b601f850160051c820191505b8181101561256657828155600101612553565b5050505b505050565b815167ffffffffffffffff81111561258957612589611fcb565b61259d8161259784546124bb565b84612520565b602080601f8311600181146125d257600084156125ba5750858301515b600019600386901b1c1916600185901b178555612566565b600085815260208120601f198616915b82811015612601578886015182559484019460019091019084016125e2565b508582101561261f5787850151600019600388901b60f8161c191681555b5050505050600190811b01905550565b634e487b7160e01b600052601160045260246000fd5b6000600182016126575761265761262f565b5060010190565b808201808211156106915761069161262f565b60608152600061268460608301866120e0565b6001600160a01b039490941660208301525060400152919050565b80820281158282048414176106915761069161262f565b634e487b7160e01b600052601260045260246000fd5b6000826126db576126db6126b6565b500490565b600081546126ed816124bb565b80855260206001838116801561270a576001811461272457612752565b60ff1985168884015283151560051b880183019550612752565b866000528260002060005b8581101561274a5781548a820186015290830190840161272f565b890184019650505b505050505092915050565b60006101008083526127718184018c6126e0565b9050602083820381850152612786828c6126e0565b604085018b90526001600160a01b038a811660608701528582036080870152895480835260008b8152848120955091928401915b818110156127d85785548416835260019586019592850192016127ba565b50506001600160a01b03891660a08701528760c087015285810360e087015261280181886126e0565b9e9d5050505050505050505050505050565b818103818111156106915761069161262f565b878152600060208881840152604083018854896000528260002060005b828110156128685781546001600160a01b031684529284019260019182019101612843565b505050968752860194909452506bffffffffffffffffffffffff19606092831b81166040860152911b166054830152506068019392505050565b6000826128b1576128b16126b6565b500690565b634e487b7160e01b600052603260045260246000fdfea26469706673582212208f28c77e226b92aa0f6400cf3128b21bdd1f6c34808bbbaae2c04648d4063a4864736f6c63430008110033",
  "devdoc": {
    "kind": "dev",
    "methods": {
      "owner()": {
        "details": "Returns the address of the current owner."
      },
      "renounceOwnership()": {
        "details": "Leaves the contract without owner. It will not be possible to call `onlyOwner` functions anymore. Can only be called by the current owner. NOTE: Renouncing ownership will leave the contract without an owner, thereby removing any functionality that is only available to the owner."
      },
      "transferOwnership(address)": {
        "details": "Transfers ownership of the contract to a new account (`newOwner`). Can only be called by the current owner."
      }
    },
    "version": 1
  },
  "userdoc": {
    "kind": "user",
    "methods": {},
    "version": 1
  },
  "storageLayout": {
    "storage": [
      {
        "astId": 7,
        "contract": "contracts/YourContract.sol:LottusLottery",
        "label": "_owner",
        "offset": 0,
        "slot": "0",
        "type": "t_address"
      },
      {
        "astId": 3328,
        "contract": "contracts/YourContract.sol:LottusLottery",
        "label": "currentLottery",
        "offset": 0,
        "slot": "1",
        "type": "t_struct(Lottery)3295_storage"
      },
      {
        "astId": 3330,
        "contract": "contracts/YourContract.sol:LottusLottery",
        "label": "currentLotteryId",
        "offset": 0,
        "slot": "12",
        "type": "t_uint256"
      },
      {
        "astId": 3333,
        "contract": "contracts/YourContract.sol:LottusLottery",
        "label": "participants",
        "offset": 0,
        "slot": "13",
        "type": "t_array(t_address)dyn_storage"
      },
      {
        "astId": 3337,
        "contract": "contracts/YourContract.sol:LottusLottery",
        "label": "winnerRecords",
        "offset": 0,
        "slot": "14",
        "type": "t_array(t_struct(WinnerRecord)3302_storage)dyn_storage"
      },
      {
        "astId": 3341,
        "contract": "contracts/YourContract.sol:LottusLottery",
        "label": "charityRecords",
        "offset": 0,
        "slot": "15",
        "type": "t_array(t_struct(CharityRecord)3309_storage)dyn_storage"
      },
      {
        "astId": 3343,
        "contract": "contracts/YourContract.sol:LottusLottery",
        "label": "lastPrizeAmount",
        "offset": 0,
        "slot": "16",
        "type": "t_uint256"
      },
      {
        "astId": 3345,
        "contract": "contracts/YourContract.sol:LottusLottery",
        "label": "lastCharityAmount",
        "offset": 0,
        "slot": "17",
        "type": "t_uint256"
      },
      {
        "astId": 3350,
        "contract": "contracts/YourContract.sol:LottusLottery",
        "label": "users",
        "offset": 0,
        "slot": "18",
        "type": "t_mapping(t_address,t_struct(User)3325_storage)"
      },
      {
        "astId": 3354,
        "contract": "contracts/YourContract.sol:LottusLottery",
        "label": "participantsMap",
        "offset": 0,
        "slot": "19",
        "type": "t_mapping(t_address,t_bool)"
      }
    ],
    "types": {
      "t_address": {
        "encoding": "inplace",
        "label": "address",
        "numberOfBytes": "20"
      },
      "t_array(t_address)dyn_storage": {
        "base": "t_address",
        "encoding": "dynamic_array",
        "label": "address[]",
        "numberOfBytes": "32"
      },
      "t_array(t_string_storage)dyn_storage": {
        "base": "t_string_storage",
        "encoding": "dynamic_array",
        "label": "string[]",
        "numberOfBytes": "32"
      },
      "t_array(t_struct(CharityRecord)3309_storage)dyn_storage": {
        "base": "t_struct(CharityRecord)3309_storage",
        "encoding": "dynamic_array",
        "label": "struct LottusLottery.CharityRecord[]",
        "numberOfBytes": "32"
      },
      "t_array(t_struct(WinnerRecord)3302_storage)dyn_storage": {
        "base": "t_struct(WinnerRecord)3302_storage",
        "encoding": "dynamic_array",
        "label": "struct LottusLottery.WinnerRecord[]",
        "numberOfBytes": "32"
      },
      "t_bool": {
        "encoding": "inplace",
        "label": "bool",
        "numberOfBytes": "1"
      },
      "t_mapping(t_address,t_bool)": {
        "encoding": "mapping",
        "key": "t_address",
        "label": "mapping(address => bool)",
        "numberOfBytes": "32",
        "value": "t_bool"
      },
      "t_mapping(t_address,t_struct(User)3325_storage)": {
        "encoding": "mapping",
        "key": "t_address",
        "label": "mapping(address => struct LottusLottery.User)",
        "numberOfBytes": "32",
        "value": "t_struct(User)3325_storage"
      },
      "t_mapping(t_string_memory_ptr,t_bool)": {
        "encoding": "mapping",
        "key": "t_string_memory_ptr",
        "label": "mapping(string => bool)",
        "numberOfBytes": "32",
        "value": "t_bool"
      },
      "t_string_memory_ptr": {
        "encoding": "bytes",
        "label": "string",
        "numberOfBytes": "32"
      },
      "t_string_storage": {
        "encoding": "bytes",
        "label": "string",
        "numberOfBytes": "32"
      },
      "t_struct(CharityRecord)3309_storage": {
        "encoding": "inplace",
        "label": "struct LottusLottery.CharityRecord",
        "members": [
          {
            "astId": 3304,
            "contract": "contracts/YourContract.sol:LottusLottery",
            "label": "charity",
            "offset": 0,
            "slot": "0",
            "type": "t_address"
          },
          {
            "astId": 3306,
            "contract": "contracts/YourContract.sol:LottusLottery",
            "label": "amount",
            "offset": 0,
            "slot": "1",
            "type": "t_uint256"
          },
          {
            "astId": 3308,
            "contract": "contracts/YourContract.sol:LottusLottery",
            "label": "timestamp",
            "offset": 0,
            "slot": "2",
            "type": "t_uint256"
          }
        ],
        "numberOfBytes": "96"
      },
      "t_struct(Lottery)3295_storage": {
        "encoding": "inplace",
        "label": "struct LottusLottery.Lottery",
        "members": [
          {
            "astId": 3271,
            "contract": "contracts/YourContract.sol:LottusLottery",
            "label": "id",
            "offset": 0,
            "slot": "0",
            "type": "t_uint256"
          },
          {
            "astId": 3273,
            "contract": "contracts/YourContract.sol:LottusLottery",
            "label": "name",
            "offset": 0,
            "slot": "1",
            "type": "t_string_storage"
          },
          {
            "astId": 3275,
            "contract": "contracts/YourContract.sol:LottusLottery",
            "label": "description",
            "offset": 0,
            "slot": "2",
            "type": "t_string_storage"
          },
          {
            "astId": 3277,
            "contract": "contracts/YourContract.sol:LottusLottery",
            "label": "bannerCID",
            "offset": 0,
            "slot": "3",
            "type": "t_string_storage"
          },
          {
            "astId": 3279,
            "contract": "contracts/YourContract.sol:LottusLottery",
            "label": "winnerNFTCID",
            "offset": 0,
            "slot": "4",
            "type": "t_string_storage"
          },
          {
            "astId": 3281,
            "contract": "contracts/YourContract.sol:LottusLottery",
            "label": "participantNFTCID",
            "offset": 0,
            "slot": "5",
            "type": "t_string_storage"
          },
          {
            "astId": 3283,
            "contract": "contracts/YourContract.sol:LottusLottery",
            "label": "ticketPrice",
            "offset": 0,
            "slot": "6",
            "type": "t_uint256"
          },
          {
            "astId": 3285,
            "contract": "contracts/YourContract.sol:LottusLottery",
            "label": "charity",
            "offset": 0,
            "slot": "7",
            "type": "t_address"
          },
          {
            "astId": 3288,
            "contract": "contracts/YourContract.sol:LottusLottery",
            "label": "participants",
            "offset": 0,
            "slot": "8",
            "type": "t_array(t_address)dyn_storage"
          },
          {
            "astId": 3290,
            "contract": "contracts/YourContract.sol:LottusLottery",
            "label": "winner",
            "offset": 0,
            "slot": "9",
            "type": "t_address"
          },
          {
            "astId": 3292,
            "contract": "contracts/YourContract.sol:LottusLottery",
            "label": "isActive",
            "offset": 20,
            "slot": "9",
            "type": "t_bool"
          },
          {
            "astId": 3294,
            "contract": "contracts/YourContract.sol:LottusLottery",
            "label": "endTime",
            "offset": 0,
            "slot": "10",
            "type": "t_uint256"
          }
        ],
        "numberOfBytes": "352"
      },
      "t_struct(User)3325_storage": {
        "encoding": "inplace",
        "label": "struct LottusLottery.User",
        "members": [
          {
            "astId": 3311,
            "contract": "contracts/YourContract.sol:LottusLottery",
            "label": "level",
            "offset": 0,
            "slot": "0",
            "type": "t_uint256"
          },
          {
            "astId": 3313,
            "contract": "contracts/YourContract.sol:LottusLottery",
            "label": "participationCount",
            "offset": 0,
            "slot": "1",
            "type": "t_uint256"
          },
          {
            "astId": 3315,
            "contract": "contracts/YourContract.sol:LottusLottery",
            "label": "totalDonations",
            "offset": 0,
            "slot": "2",
            "type": "t_uint256"
          },
          {
            "astId": 3317,
            "contract": "contracts/YourContract.sol:LottusLottery",
            "label": "totalSpent",
            "offset": 0,
            "slot": "3",
            "type": "t_uint256"
          },
          {
            "astId": 3321,
            "contract": "contracts/YourContract.sol:LottusLottery",
            "label": "badges",
            "offset": 0,
            "slot": "4",
            "type": "t_mapping(t_string_memory_ptr,t_bool)"
          },
          {
            "astId": 3324,
            "contract": "contracts/YourContract.sol:LottusLottery",
            "label": "badgeList",
            "offset": 0,
            "slot": "5",
            "type": "t_array(t_string_storage)dyn_storage"
          }
        ],
        "numberOfBytes": "192"
      },
      "t_struct(WinnerRecord)3302_storage": {
        "encoding": "inplace",
        "label": "struct LottusLottery.WinnerRecord",
        "members": [
          {
            "astId": 3297,
            "contract": "contracts/YourContract.sol:LottusLottery",
            "label": "winner",
            "offset": 0,
            "slot": "0",
            "type": "t_address"
          },
          {
            "astId": 3299,
            "contract": "contracts/YourContract.sol:LottusLottery",
            "label": "amount",
            "offset": 0,
            "slot": "1",
            "type": "t_uint256"
          },
          {
            "astId": 3301,
            "contract": "contracts/YourContract.sol:LottusLottery",
            "label": "timestamp",
            "offset": 0,
            "slot": "2",
            "type": "t_uint256"
          }
        ],
        "numberOfBytes": "96"
      },
      "t_uint256": {
        "encoding": "inplace",
        "label": "uint256",
        "numberOfBytes": "32"
      }
    }
  }
}