{
  "address": "0x63253eE50c57284eD8CC0d0bee99a99125481A7C",
  "abi": [
    {
      "inputs": [
        {
          "internalType": "string",
          "name": "name",
          "type": "string"
        },
        {
          "internalType": "string",
          "name": "symbol",
          "type": "string"
        },
        {
          "internalType": "address",
          "name": "lotteryContractAddress",
          "type": "address"
        },
        {
          "internalType": "string",
          "name": "initialWinnerCID",
          "type": "string"
        },
        {
          "internalType": "string",
          "name": "initialParticipantCID",
          "type": "string"
        }
      ],
      "stateMutability": "nonpayable",
      "type": "constructor"
    },
    {
      "anonymous": false,
      "inputs": [
        {
          "indexed": true,
          "internalType": "address",
          "name": "owner",
          "type": "address"
        },
        {
          "indexed": true,
          "internalType": "address",
          "name": "approved",
          "type": "address"
        },
        {
          "indexed": true,
          "internalType": "uint256",
          "name": "tokenId",
          "type": "uint256"
        }
      ],
      "name": "Approval",
      "type": "event"
    },
    {
      "anonymous": false,
      "inputs": [
        {
          "indexed": true,
          "internalType": "address",
          "name": "owner",
          "type": "address"
        },
        {
          "indexed": true,
          "internalType": "address",
          "name": "operator",
          "type": "address"
        },
        {
          "indexed": false,
          "internalType": "bool",
          "name": "approved",
          "type": "bool"
        }
      ],
      "name": "ApprovalForAll",
      "type": "event"
    },
    {
      "anonymous": false,
      "inputs": [
        {
          "indexed": true,
          "internalType": "address",
          "name": "previousOwner",
          "type": "address"
        },
        {
          "indexed": true,
          "internalType": "address",
          "name": "newOwner",
          "type": "address"
        }
      ],
      "name": "OwnershipTransferred",
      "type": "event"
    },
    {
      "anonymous": false,
      "inputs": [
        {
          "indexed": true,
          "internalType": "address",
          "name": "from",
          "type": "address"
        },
        {
          "indexed": true,
          "internalType": "address",
          "name": "to",
          "type": "address"
        },
        {
          "indexed": true,
          "internalType": "uint256",
          "name": "tokenId",
          "type": "uint256"
        }
      ],
      "name": "Transfer",
      "type": "event"
    },
    {
      "inputs": [
        {
          "internalType": "address",
          "name": "to",
          "type": "address"
        },
        {
          "internalType": "uint256",
          "name": "tokenId",
          "type": "uint256"
        }
      ],
      "name": "approve",
      "outputs": [],
      "stateMutability": "nonpayable",
      "type": "function"
    },
    {
      "inputs": [
        {
          "internalType": "address",
          "name": "owner",
          "type": "address"
        }
      ],
      "name": "balanceOf",
      "outputs": [
        {
          "internalType": "uint256",
          "name": "",
          "type": "uint256"
        }
      ],
      "stateMutability": "view",
      "type": "function"
    },
    {
      "inputs": [],
      "name": "claimParticipantNFT",
      "outputs": [],
      "stateMutability": "nonpayable",
      "type": "function"
    },
    {
      "inputs": [
        {
          "internalType": "uint256",
          "name": "tokenId",
          "type": "uint256"
        }
      ],
      "name": "getApproved",
      "outputs": [
        {
          "internalType": "address",
          "name": "",
          "type": "address"
        }
      ],
      "stateMutability": "view",
      "type": "function"
    },
    {
      "inputs": [
        {
          "internalType": "uint256",
          "name": "lotteryId",
          "type": "uint256"
        }
      ],
      "name": "getClaimedParticipants",
      "outputs": [
        {
          "internalType": "address[]",
          "name": "",
          "type": "address[]"
        }
      ],
      "stateMutability": "view",
      "type": "function"
    },
    {
      "inputs": [
        {
          "internalType": "address",
          "name": "",
          "type": "address"
        },
        {
          "internalType": "uint256",
          "name": "",
          "type": "uint256"
        }
      ],
      "name": "hasClaimedNFT",
      "outputs": [
        {
          "internalType": "bool",
          "name": "",
          "type": "bool"
        }
      ],
      "stateMutability": "view",
      "type": "function"
    },
    {
      "inputs": [
        {
          "internalType": "address",
          "name": "owner",
          "type": "address"
        },
        {
          "internalType": "address",
          "name": "operator",
          "type": "address"
        }
      ],
      "name": "isApprovedForAll",
      "outputs": [
        {
          "internalType": "bool",
          "name": "",
          "type": "bool"
        }
      ],
      "stateMutability": "view",
      "type": "function"
    },
    {
      "inputs": [],
      "name": "lotteryContract",
      "outputs": [
        {
          "internalType": "contract ILottusLottery",
          "name": "",
          "type": "address"
        }
      ],
      "stateMutability": "view",
      "type": "function"
    },
    {
      "inputs": [],
      "name": "mintWinnerNFT",
      "outputs": [],
      "stateMutability": "nonpayable",
      "type": "function"
    },
    {
      "inputs": [],
      "name": "name",
      "outputs": [
        {
          "internalType": "string",
          "name": "",
          "type": "string"
        }
      ],
      "stateMutability": "view",
      "type": "function"
    },
    {
      "inputs": [],
      "name": "owner",
      "outputs": [
        {
          "internalType": "address",
          "name": "",
          "type": "address"
        }
      ],
      "stateMutability": "view",
      "type": "function"
    },
    {
      "inputs": [
        {
          "internalType": "uint256",
          "name": "tokenId",
          "type": "uint256"
        }
      ],
      "name": "ownerOf",
      "outputs": [
        {
          "internalType": "address",
          "name": "",
          "type": "address"
        }
      ],
      "stateMutability": "view",
      "type": "function"
    },
    {
      "inputs": [],
      "name": "participantMetadataCID",
      "outputs": [
        {
          "internalType": "string",
          "name": "",
          "type": "string"
        }
      ],
      "stateMutability": "view",
      "type": "function"
    },
    {
      "inputs": [],
      "name": "renounceOwnership",
      "outputs": [],
      "stateMutability": "nonpayable",
      "type": "function"
    },
    {
      "inputs": [
        {
          "internalType": "uint256",
          "name": "lotteryId",
          "type": "uint256"
        }
      ],
      "name": "resetClaimedParticipants",
      "outputs": [],
      "stateMutability": "nonpayable",
      "type": "function"
    },
    {
      "inputs": [
        {
          "internalType": "address",
          "name": "from",
          "type": "address"
        },
        {
          "internalType": "address",
          "name": "to",
          "type": "address"
        },
        {
          "internalType": "uint256",
          "name": "tokenId",
          "type": "uint256"
        }
      ],
      "name": "safeTransferFrom",
      "outputs": [],
      "stateMutability": "nonpayable",
      "type": "function"
    },
    {
      "inputs": [
        {
          "internalType": "address",
          "name": "from",
          "type": "address"
        },
        {
          "internalType": "address",
          "name": "to",
          "type": "address"
        },
        {
          "internalType": "uint256",
          "name": "tokenId",
          "type": "uint256"
        },
        {
          "internalType": "bytes",
          "name": "data",
          "type": "bytes"
        }
      ],
      "name": "safeTransferFrom",
      "outputs": [],
      "stateMutability": "nonpayable",
      "type": "function"
    },
    {
      "inputs": [
        {
          "internalType": "address",
          "name": "operator",
          "type": "address"
        },
        {
          "internalType": "bool",
          "name": "approved",
          "type": "bool"
        }
      ],
      "name": "setApprovalForAll",
      "outputs": [],
      "stateMutability": "nonpayable",
      "type": "function"
    },
    {
      "inputs": [
        {
          "internalType": "bytes4",
          "name": "interfaceId",
          "type": "bytes4"
        }
      ],
      "name": "supportsInterface",
      "outputs": [
        {
          "internalType": "bool",
          "name": "",
          "type": "bool"
        }
      ],
      "stateMutability": "view",
      "type": "function"
    },
    {
      "inputs": [],
      "name": "symbol",
      "outputs": [
        {
          "internalType": "string",
          "name": "",
          "type": "string"
        }
      ],
      "stateMutability": "view",
      "type": "function"
    },
    {
      "inputs": [
        {
          "internalType": "uint256",
          "name": "tokenId",
          "type": "uint256"
        }
      ],
      "name": "tokenURI",
      "outputs": [
        {
          "internalType": "string",
          "name": "",
          "type": "string"
        }
      ],
      "stateMutability": "view",
      "type": "function"
    },
    {
      "inputs": [
        {
          "internalType": "address",
          "name": "from",
          "type": "address"
        },
        {
          "internalType": "address",
          "name": "to",
          "type": "address"
        },
        {
          "internalType": "uint256",
          "name": "tokenId",
          "type": "uint256"
        }
      ],
      "name": "transferFrom",
      "outputs": [],
      "stateMutability": "nonpayable",
      "type": "function"
    },
    {
      "inputs": [
        {
          "internalType": "address",
          "name": "newOwner",
          "type": "address"
        }
      ],
      "name": "transferOwnership",
      "outputs": [],
      "stateMutability": "nonpayable",
      "type": "function"
    },
    {
      "inputs": [
        {
          "internalType": "string",
          "name": "newCID",
          "type": "string"
        }
      ],
      "name": "updateParticipantMetadataCID",
      "outputs": [],
      "stateMutability": "nonpayable",
      "type": "function"
    },
    {
      "inputs": [
        {
          "internalType": "string",
          "name": "newCID",
          "type": "string"
        }
      ],
      "name": "updateWinnerMetadataCID",
      "outputs": [],
      "stateMutability": "nonpayable",
      "type": "function"
    },
    {
      "inputs": [],
      "name": "winnerMetadataCID",
      "outputs": [
        {
          "internalType": "string",
          "name": "",
          "type": "string"
        }
      ],
      "stateMutability": "view",
      "type": "function"
    },
    {
      "inputs": [],
      "name": "winnerNFTMinted",
      "outputs": [
        {
          "internalType": "bool",
          "name": "",
          "type": "bool"
        }
      ],
      "stateMutability": "view",
      "type": "function"
    }
  ],
  "transactionHash": "0xa863c1145221ba9c8c13dea4a7730d08bd79c2bfe7d2671dc656a6432f1ccc44",
  "args": [
    "LottusNFT",
    "LNFT",
    "0x2ADC1EF82E8CEcd481CDEC3B0b6FD9F8B6Cf1090",
    "Qm...",
    "Qm..."
  ],
  "numDeployments": 1,
  "solcInputHash": "714b5ba107a3794f383470e9b5e92ecd",
  "bytecode": "0x60806040523480156200001157600080fd5b50604051620028a2380380620028a28339810160408190526200003491620001ba565b84846200004133620000a5565b60016200004f838262000324565b5060026200005e828262000324565b5050600980546001600160a01b0319166001600160a01b03861617905550600c6200008a838262000324565b50600d62000099828262000324565b505050505050620003f0565b600080546001600160a01b038381166001600160a01b0319831681178455604051919092169283917f8be0079c531659141344cd1fd0a4f28419497f9722a3daafe3b4186f6b6457e09190a35050565b634e487b7160e01b600052604160045260246000fd5b600082601f8301126200011d57600080fd5b81516001600160401b03808211156200013a576200013a620000f5565b604051601f8301601f19908116603f01168101908282118183101715620001655762000165620000f5565b816040528381526020925086838588010111156200018257600080fd5b600091505b83821015620001a6578582018301518183018401529082019062000187565b600093810190920192909252949350505050565b600080600080600060a08688031215620001d357600080fd5b85516001600160401b0380821115620001eb57600080fd5b620001f989838a016200010b565b965060208801519150808211156200021057600080fd5b6200021e89838a016200010b565b604089015190965091506001600160a01b03821682146200023e57600080fd5b6060880151919450808211156200025457600080fd5b6200026289838a016200010b565b935060808801519150808211156200027957600080fd5b5062000288888289016200010b565b9150509295509295909350565b600181811c90821680620002aa57607f821691505b602082108103620002cb57634e487b7160e01b600052602260045260246000fd5b50919050565b601f8211156200031f57600081815260208120601f850160051c81016020861015620002fa5750805b601f850160051c820191505b818110156200031b5782815560010162000306565b5050505b505050565b81516001600160401b03811115620003405762000340620000f5565b620003588162000351845462000295565b84620002d1565b602080601f831160018114620003905760008415620003775750858301515b600019600386901b1c1916600185901b1785556200031b565b600085815260208120601f198616915b82811015620003c157888601518255948401946001909101908401620003a0565b5085821015620003e05787850151600019600388901b60f8161c191681555b5050505050600190811b01905550565b6124a280620004006000396000f3fe608060405234801561001057600080fd5b50600436106101a95760003560e01c8063715018a6116100f9578063b29c662a11610097578063cc6a441811610071578063cc6a441814610365578063e61d28c614610393578063e985e9c5146103a6578063f2fde38b146103e257600080fd5b8063b29c662a1461032c578063b88d4fde1461033f578063c87b56dd1461035257600080fd5b806395d89b41116100d357806395d89b41146102f65780639bc8f864146102fe578063a22cb46514610311578063ac3d896e1461032457600080fd5b8063715018a6146102d55780637e26602e146102dd5780638da5cb5b146102e557600080fd5b80633a713348116101665780635daa5c64116101405780635daa5c64146102745780636352211e14610281578063655ead761461029457806370a08231146102b457600080fd5b80633a7133481461024657806340b192641461024e57806342842e0e1461026157600080fd5b806301ffc9a7146101ae57806306fdde03146101d6578063081812fc146101eb578063095ea7b3146102165780631aca31691461022b57806323b872dd14610233575b600080fd5b6101c16101bc366004611c84565b6103f5565b60405190151581526020015b60405180910390f35b6101de610447565b6040516101cd9190611cf1565b6101fe6101f9366004611d04565b6104d9565b6040516001600160a01b0390911681526020016101cd565b610229610224366004611d32565b610500565b005b6101de61061a565b610229610241366004611d5e565b6106a8565b6102296106d9565b61022961025c366004611e3e565b61090a565b61022961026f366004611d5e565b610922565b600b546101c19060ff1681565b6101fe61028f366004611d04565b61093d565b6102a76102a2366004611d04565b61099d565b6040516101cd9190611e87565b6102c76102c2366004611ed4565b610bad565b6040519081526020016101cd565b610229610c33565b6101de610c47565b6000546001600160a01b03166101fe565b6101de610c54565b61022961030c366004611d04565b610c63565b61022961031f366004611eff565b610db4565b610229610dbf565b6009546101fe906001600160a01b031681565b61022961034d366004611f38565b6110f4565b6101de610360366004611d04565b61112c565b6101c1610373366004611d32565b600a60209081526000928352604080842090915290825290205460ff1681565b6102296103a1366004611e3e565b61123c565b6101c16103b4366004611fb8565b6001600160a01b03918216600090815260066020908152604080832093909416825291909152205460ff1690565b6102296103f0366004611ed4565b611250565b60006001600160e01b031982166380ac58cd60e01b148061042657506001600160e01b03198216635b5e139f60e01b145b8061044157506301ffc9a760e01b6001600160e01b03198316145b92915050565b60606001805461045690611fe6565b80601f016020809104026020016040519081016040528092919081815260200182805461048290611fe6565b80156104cf5780601f106104a4576101008083540402835291602001916104cf565b820191906000526020600020905b8154815290600101906020018083116104b257829003601f168201915b5050505050905090565b60006104e4826112c9565b506000908152600560205260409020546001600160a01b031690565b600061050b8261093d565b9050806001600160a01b0316836001600160a01b03160361057d5760405162461bcd60e51b815260206004820152602160248201527f4552433732313a20617070726f76616c20746f2063757272656e74206f776e656044820152603960f91b60648201526084015b60405180910390fd5b336001600160a01b0382161480610599575061059981336103b4565b61060b5760405162461bcd60e51b815260206004820152603d60248201527f4552433732313a20617070726f76652063616c6c6572206973206e6f7420746f60448201527f6b656e206f776e6572206f7220617070726f76656420666f7220616c6c0000006064820152608401610574565b6106158383611328565b505050565b600d805461062790611fe6565b80601f016020809104026020016040519081016040528092919081815260200182805461065390611fe6565b80156106a05780601f10610675576101008083540402835291602001916106a0565b820191906000526020600020905b81548152906001019060200180831161068357829003601f168201915b505050505081565b6106b23382611396565b6106ce5760405162461bcd60e51b815260040161057490612020565b610615838383611414565b6106e1611578565b600960009054906101000a90046001600160a01b03166001600160a01b031663c3b69ebb6040518163ffffffff1660e01b8152600401602060405180830381865afa158015610734573d6000803e3d6000fd5b505050506040513d601f19601f82011682018060405250810190610758919061206d565b1561079c5760405162461bcd60e51b81526020600482015260146024820152734c6f7474657279207374696c6c2061637469766560601b6044820152606401610574565b6009546040805163473f52d960e11b815290516000926001600160a01b031691638e7ea5b29160048083019260209291908290030181865afa1580156107e6573d6000803e3d6000fd5b505050506040513d601f19601f8201168201806040525081019061080a919061208a565b90506001600160a01b0381166108575760405162461bcd60e51b8152602060048201526012602482015271139bc81dda5b9b995c881cd95b1958dd195960721b6044820152606401610574565b600b5460ff16156108aa5760405162461bcd60e51b815260206004820152601960248201527f57696e6e6572204e465420616c7265616479206d696e746564000000000000006044820152606401610574565b6108b8600880546001019055565b60006108c360085490565b90506108cf82826115d2565b6108f981600c6040516020016108e591906120a7565b6040516020818303038152906040526115ec565b5050600b805460ff19166001179055565b610912611578565b600c61091e8282612184565b5050565b610615838383604051806020016040528060008152506110f4565b6000818152600360205260408120546001600160a01b0316806104415760405162461bcd60e51b8152602060048201526018602482015277115490cdcc8c4e881a5b9d985b1a59081d1bdad95b88125160421b6044820152606401610574565b60606000600960009054906101000a90046001600160a01b03166001600160a01b0316635aa68ac06040518163ffffffff1660e01b8152600401600060405180830381865afa1580156109f4573d6000803e3d6000fd5b505050506040513d6000823e601f3d908101601f19168201604052610a1c9190810190612244565b90506000805b8251811015610a9a57600a6000848381518110610a4157610a416122f6565b6020908102919091018101516001600160a01b03168252818101929092526040908101600090812088825290925290205460ff1615610a885781610a848161230c565b9250505b80610a928161230c565b915050610a22565b5060008167ffffffffffffffff811115610ab657610ab6611d9f565b604051908082528060200260200182016040528015610adf578160200160208202803683370190505b5090506000805b8451811015610ba257600a6000868381518110610b0557610b056122f6565b6020908102919091018101516001600160a01b0316825281810192909252604090810160009081208a825290925290205460ff1615610b9057848181518110610b5057610b506122f6565b6020026020010151838381518110610b6a57610b6a6122f6565b6001600160a01b039092166020928302919091019091015281610b8c8161230c565b9250505b80610b9a8161230c565b915050610ae6565b509095945050505050565b60006001600160a01b038216610c175760405162461bcd60e51b815260206004820152602960248201527f4552433732313a2061646472657373207a65726f206973206e6f7420612076616044820152683634b21037bbb732b960b91b6064820152608401610574565b506001600160a01b031660009081526004602052604090205490565b610c3b611578565b610c45600061167f565b565b600c805461062790611fe6565b60606002805461045690611fe6565b610c6b611578565b600b5460ff16610cbd5760405162461bcd60e51b815260206004820152601960248201527f57696e6e6572204e4654206e6f74206d696e74656420796574000000000000006044820152606401610574565b6009546040805163016a9a2b60e61b815290516000926001600160a01b031691635aa68ac091600480830192869291908290030181865afa158015610d06573d6000803e3d6000fd5b505050506040513d6000823e601f3d908101601f19168201604052610d2e9190810190612244565b905060005b8151811015610da5576000600a6000848481518110610d5457610d546122f6565b6020908102919091018101516001600160a01b0316825281810192909252604090810160009081208782529092529020805460ff191691151591909117905580610d9d8161230c565b915050610d33565b5050600b805460ff1916905550565b61091e3383836116cf565b600960009054906101000a90046001600160a01b03166001600160a01b031663c3b69ebb6040518163ffffffff1660e01b8152600401602060405180830381865afa158015610e12573d6000803e3d6000fd5b505050506040513d601f19601f82011682018060405250810190610e36919061206d565b15610e7a5760405162461bcd60e51b81526020600482015260146024820152734c6f7474657279207374696c6c2061637469766560601b6044820152606401610574565b60095460408051631af9025f60e21b815290516000926001600160a01b031691636be4097c9160048083019260209291908290030181865afa158015610ec4573d6000803e3d6000fd5b505050506040513d601f19601f82011682018060405250810190610ee89190612333565b336000908152600a6020908152604080832084845290915290205490915060ff1615610f625760405162461bcd60e51b8152602060048201526024808201527f4e465420616c726561647920636c61696d656420666f722074686973206c6f746044820152637465727960e01b6064820152608401610574565b6009546040805163016a9a2b60e61b815290516000926001600160a01b031691635aa68ac091600480830192869291908290030181865afa158015610fab573d6000803e3d6000fd5b505050506040513d6000823e601f3d908101601f19168201604052610fd39190810190612244565b90506000805b825181101561102f57336001600160a01b0316838281518110610ffe57610ffe6122f6565b60200260200101516001600160a01b03160361101d576001915061102f565b806110278161230c565b915050610fd9565b508061108d5760405162461bcd60e51b815260206004820152602760248201527f596f7520646964206e6f7420706172746963697061746520696e2074686973206044820152666c6f747465727960c81b6064820152608401610574565b61109b600880546001019055565b60006110a660085490565b90506110b233826115d2565b6110c881600d6040516020016108e591906120a7565b5050336000908152600a6020908152604080832094835293905291909120805460ff1916600117905550565b6110fe3383611396565b61111a5760405162461bcd60e51b815260040161057490612020565b6111268484848461179d565b50505050565b6060611137826112c9565b6000828152600760205260408120805461115090611fe6565b80601f016020809104026020016040519081016040528092919081815260200182805461117c90611fe6565b80156111c95780601f1061119e576101008083540402835291602001916111c9565b820191906000526020600020905b8154815290600101906020018083116111ac57829003601f168201915b5050505050905060006111e760408051602081019091526000815290565b905080516000036111f9575092915050565b81511561122b57808260405160200161121392919061234c565b60405160208183030381529060405292505050919050565b611234846117d0565b949350505050565b611244611578565b600d61091e8282612184565b611258611578565b6001600160a01b0381166112bd5760405162461bcd60e51b815260206004820152602660248201527f4f776e61626c653a206e6577206f776e657220697320746865207a65726f206160448201526564647265737360d01b6064820152608401610574565b6112c68161167f565b50565b6000818152600360205260409020546001600160a01b03166112c65760405162461bcd60e51b8152602060048201526018602482015277115490cdcc8c4e881a5b9d985b1a59081d1bdad95b88125160421b6044820152606401610574565b600081815260056020526040902080546001600160a01b0319166001600160a01b038416908117909155819061135d8261093d565b6001600160a01b03167f8c5be1e5ebec7d5bd14f71427d1e84f3dd0314c0f7b2291e5b200ac8c7c3b92560405160405180910390a45050565b6000806113a28361093d565b9050806001600160a01b0316846001600160a01b031614806113e957506001600160a01b0380821660009081526006602090815260408083209388168352929052205460ff165b806112345750836001600160a01b0316611402846104d9565b6001600160a01b031614949350505050565b826001600160a01b03166114278261093d565b6001600160a01b03161461144d5760405162461bcd60e51b81526004016105749061237b565b6001600160a01b0382166114af5760405162461bcd60e51b8152602060048201526024808201527f4552433732313a207472616e7366657220746f20746865207a65726f206164646044820152637265737360e01b6064820152608401610574565b826001600160a01b03166114c28261093d565b6001600160a01b0316146114e85760405162461bcd60e51b81526004016105749061237b565b600081815260056020908152604080832080546001600160a01b03199081169091556001600160a01b0387811680865260048552838620805460001901905590871680865283862080546001019055868652600390945282852080549092168417909155905184937fddf252ad1be2c89b69c2b068fc378daa952ba7f163c4a11628f55a4df523b3ef91a4505050565b6000546001600160a01b03163314610c455760405162461bcd60e51b815260206004820181905260248201527f4f776e61626c653a2063616c6c6572206973206e6f7420746865206f776e65726044820152606401610574565b61091e828260405180602001604052806000815250611844565b6000828152600360205260409020546001600160a01b03166116675760405162461bcd60e51b815260206004820152602e60248201527f45524337323155524953746f726167653a2055524920736574206f66206e6f6e60448201526d32bc34b9ba32b73a103a37b5b2b760911b6064820152608401610574565b60008281526007602052604090206106158282612184565b600080546001600160a01b038381166001600160a01b0319831681178455604051919092169283917f8be0079c531659141344cd1fd0a4f28419497f9722a3daafe3b4186f6b6457e09190a35050565b816001600160a01b0316836001600160a01b0316036117305760405162461bcd60e51b815260206004820152601960248201527f4552433732313a20617070726f766520746f2063616c6c6572000000000000006044820152606401610574565b6001600160a01b03838116600081815260066020908152604080832094871680845294825291829020805460ff191686151590811790915591519182527f17307eab39ab6107e8899845ad3d59bd9653f200f220920489ca2b5937696c31910160405180910390a3505050565b6117a8848484611414565b6117b484848484611877565b6111265760405162461bcd60e51b8152600401610574906123c0565b60606117db826112c9565b60006117f260408051602081019091526000815290565b90506000815111611812576040518060200160405280600081525061183d565b8061181c84611978565b60405160200161182d92919061234c565b6040516020818303038152906040525b9392505050565b61184e8383611a0b565b61185b6000848484611877565b6106155760405162461bcd60e51b8152600401610574906123c0565b60006001600160a01b0384163b1561196d57604051630a85bd0160e11b81526001600160a01b0385169063150b7a02906118bb903390899088908890600401612412565b6020604051808303816000875af19250505080156118f6575060408051601f3d908101601f191682019092526118f39181019061244f565b60015b611953573d808015611924576040519150601f19603f3d011682016040523d82523d6000602084013e611929565b606091505b50805160000361194b5760405162461bcd60e51b8152600401610574906123c0565b805181602001fd5b6001600160e01b031916630a85bd0160e11b149050611234565b506001949350505050565b6060600061198583611b96565b600101905060008167ffffffffffffffff8111156119a5576119a5611d9f565b6040519080825280601f01601f1916602001820160405280156119cf576020820181803683370190505b5090508181016020015b600019016f181899199a1a9b1b9c1cb0b131b232b360811b600a86061a8153600a85049450846119d957509392505050565b6001600160a01b038216611a615760405162461bcd60e51b815260206004820181905260248201527f4552433732313a206d696e7420746f20746865207a65726f20616464726573736044820152606401610574565b6000818152600360205260409020546001600160a01b031615611ac65760405162461bcd60e51b815260206004820152601c60248201527f4552433732313a20746f6b656e20616c7265616479206d696e746564000000006044820152606401610574565b6000818152600360205260409020546001600160a01b031615611b2b5760405162461bcd60e51b815260206004820152601c60248201527f4552433732313a20746f6b656e20616c7265616479206d696e746564000000006044820152606401610574565b6001600160a01b038216600081815260046020908152604080832080546001019055848352600390915280822080546001600160a01b0319168417905551839291907fddf252ad1be2c89b69c2b068fc378daa952ba7f163c4a11628f55a4df523b3ef908290a45050565b60008072184f03e93ff9f4daa797ed6e38ed64bf6a1f0160401b8310611bd55772184f03e93ff9f4daa797ed6e38ed64bf6a1f0160401b830492506040015b6d04ee2d6d415b85acef81000000008310611c01576d04ee2d6d415b85acef8100000000830492506020015b662386f26fc100008310611c1f57662386f26fc10000830492506010015b6305f5e1008310611c37576305f5e100830492506008015b6127108310611c4b57612710830492506004015b60648310611c5d576064830492506002015b600a83106104415760010192915050565b6001600160e01b0319811681146112c657600080fd5b600060208284031215611c9657600080fd5b813561183d81611c6e565b60005b83811015611cbc578181015183820152602001611ca4565b50506000910152565b60008151808452611cdd816020860160208601611ca1565b601f01601f19169290920160200192915050565b60208152600061183d6020830184611cc5565b600060208284031215611d1657600080fd5b5035919050565b6001600160a01b03811681146112c657600080fd5b60008060408385031215611d4557600080fd5b8235611d5081611d1d565b946020939093013593505050565b600080600060608486031215611d7357600080fd5b8335611d7e81611d1d565b92506020840135611d8e81611d1d565b929592945050506040919091013590565b634e487b7160e01b600052604160045260246000fd5b604051601f8201601f1916810167ffffffffffffffff81118282101715611dde57611dde611d9f565b604052919050565b600067ffffffffffffffff831115611e0057611e00611d9f565b611e13601f8401601f1916602001611db5565b9050828152838383011115611e2757600080fd5b828260208301376000602084830101529392505050565b600060208284031215611e5057600080fd5b813567ffffffffffffffff811115611e6757600080fd5b8201601f81018413611e7857600080fd5b61123484823560208401611de6565b6020808252825182820181905260009190848201906040850190845b81811015611ec85783516001600160a01b031683529284019291840191600101611ea3565b50909695505050505050565b600060208284031215611ee657600080fd5b813561183d81611d1d565b80151581146112c657600080fd5b60008060408385031215611f1257600080fd5b8235611f1d81611d1d565b91506020830135611f2d81611ef1565b809150509250929050565b60008060008060808587031215611f4e57600080fd5b8435611f5981611d1d565b93506020850135611f6981611d1d565b925060408501359150606085013567ffffffffffffffff811115611f8c57600080fd5b8501601f81018713611f9d57600080fd5b611fac87823560208401611de6565b91505092959194509250565b60008060408385031215611fcb57600080fd5b8235611fd681611d1d565b91506020830135611f2d81611d1d565b600181811c90821680611ffa57607f821691505b60208210810361201a57634e487b7160e01b600052602260045260246000fd5b50919050565b6020808252602d908201527f4552433732313a2063616c6c6572206973206e6f7420746f6b656e206f776e6560408201526c1c881bdc88185c1c1c9bdd9959609a1b606082015260800190565b60006020828403121561207f57600080fd5b815161183d81611ef1565b60006020828403121561209c57600080fd5b815161183d81611d1d565b66697066733a2f2f60c81b815260006007600084546120c581611fe6565b600182811680156120dd57600181146120f657612129565b60ff198416888701528215158302880186019450612129565b8860005260208060002060005b8581101561211e5781548b82018a0152908401908201612103565b505050858389010194505b5092979650505050505050565b601f82111561061557600081815260208120601f850160051c8101602086101561215d5750805b601f850160051c820191505b8181101561217c57828155600101612169565b505050505050565b815167ffffffffffffffff81111561219e5761219e611d9f565b6121b2816121ac8454611fe6565b84612136565b602080601f8311600181146121e757600084156121cf5750858301515b600019600386901b1c1916600185901b17855561217c565b600085815260208120601f198616915b82811015612216578886015182559484019460019091019084016121f7565b50858210156122345787850151600019600388901b60f8161c191681555b5050505050600190811b01905550565b6000602080838503121561225757600080fd5b825167ffffffffffffffff8082111561226f57600080fd5b818501915085601f83011261228357600080fd5b81518181111561229557612295611d9f565b8060051b91506122a6848301611db5565b81815291830184019184810190888411156122c057600080fd5b938501935b838510156122ea57845192506122da83611d1d565b82825293850193908501906122c5565b98975050505050505050565b634e487b7160e01b600052603260045260246000fd5b60006001820161232c57634e487b7160e01b600052601160045260246000fd5b5060010190565b60006020828403121561234557600080fd5b5051919050565b6000835161235e818460208801611ca1565b835190830190612372818360208801611ca1565b01949350505050565b60208082526025908201527f4552433732313a207472616e736665722066726f6d20696e636f72726563742060408201526437bbb732b960d91b606082015260800190565b60208082526032908201527f4552433732313a207472616e7366657220746f206e6f6e20455243373231526560408201527131b2b4bb32b91034b6b83632b6b2b73a32b960711b606082015260800190565b6001600160a01b038581168252841660208201526040810183905260806060820181905260009061244590830184611cc5565b9695505050505050565b60006020828403121561246157600080fd5b815161183d81611c6e56fea26469706673582212209dc3a538fdb232a38c160738871da966e0217d63bf5e8459a91f896aac16cfb064736f6c63430008110033",
  "devdoc": {
    "kind": "dev",
    "methods": {
      "approve(address,uint256)": {
        "details": "See {IERC721-approve}."
      },
      "balanceOf(address)": {
        "details": "See {IERC721-balanceOf}."
      },
      "getApproved(uint256)": {
        "details": "See {IERC721-getApproved}."
      },
      "isApprovedForAll(address,address)": {
        "details": "See {IERC721-isApprovedForAll}."
      },
      "name()": {
        "details": "See {IERC721Metadata-name}."
      },
      "owner()": {
        "details": "Returns the address of the current owner."
      },
      "ownerOf(uint256)": {
        "details": "See {IERC721-ownerOf}."
      },
      "renounceOwnership()": {
        "details": "Leaves the contract without owner. It will not be possible to call `onlyOwner` functions anymore. Can only be called by the current owner. NOTE: Renouncing ownership will leave the contract without an owner, thereby removing any functionality that is only available to the owner."
      },
      "safeTransferFrom(address,address,uint256)": {
        "details": "See {IERC721-safeTransferFrom}."
      },
      "safeTransferFrom(address,address,uint256,bytes)": {
        "details": "See {IERC721-safeTransferFrom}."
      },
      "setApprovalForAll(address,bool)": {
        "details": "See {IERC721-setApprovalForAll}."
      },
      "supportsInterface(bytes4)": {
        "details": "See {IERC165-supportsInterface}."
      },
      "symbol()": {
        "details": "See {IERC721Metadata-symbol}."
      },
      "tokenURI(uint256)": {
        "details": "See {IERC721Metadata-tokenURI}."
      },
      "transferFrom(address,address,uint256)": {
        "details": "See {IERC721-transferFrom}."
      },
      "transferOwnership(address)": {
        "details": "Transfers ownership of the contract to a new account (`newOwner`). Can only be called by the current owner."
      }
    },
    "version": 1
  },
  "userdoc": {
    "kind": "user",
    "methods": {},
    "version": 1
  },
  "storageLayout": {
    "storage": [
      {
        "astId": 7,
        "contract": "contracts/LottusNFT.sol:LottusNFT",
        "label": "_owner",
        "offset": 0,
        "slot": "0",
        "type": "t_address"
      },
      {
        "astId": 138,
        "contract": "contracts/LottusNFT.sol:LottusNFT",
        "label": "_name",
        "offset": 0,
        "slot": "1",
        "type": "t_string_storage"
      },
      {
        "astId": 140,
        "contract": "contracts/LottusNFT.sol:LottusNFT",
        "label": "_symbol",
        "offset": 0,
        "slot": "2",
        "type": "t_string_storage"
      },
      {
        "astId": 144,
        "contract": "contracts/LottusNFT.sol:LottusNFT",
        "label": "_owners",
        "offset": 0,
        "slot": "3",
        "type": "t_mapping(t_uint256,t_address)"
      },
      {
        "astId": 148,
        "contract": "contracts/LottusNFT.sol:LottusNFT",
        "label": "_balances",
        "offset": 0,
        "slot": "4",
        "type": "t_mapping(t_address,t_uint256)"
      },
      {
        "astId": 152,
        "contract": "contracts/LottusNFT.sol:LottusNFT",
        "label": "_tokenApprovals",
        "offset": 0,
        "slot": "5",
        "type": "t_mapping(t_uint256,t_address)"
      },
      {
        "astId": 158,
        "contract": "contracts/LottusNFT.sol:LottusNFT",
        "label": "_operatorApprovals",
        "offset": 0,
        "slot": "6",
        "type": "t_mapping(t_address,t_mapping(t_address,t_bool))"
      },
      {
        "astId": 1186,
        "contract": "contracts/LottusNFT.sol:LottusNFT",
        "label": "_tokenURIs",
        "offset": 0,
        "slot": "7",
        "type": "t_mapping(t_uint256,t_string_storage)"
      },
      {
        "astId": 2866,
        "contract": "contracts/LottusNFT.sol:LottusNFT",
        "label": "_tokenIds",
        "offset": 0,
        "slot": "8",
        "type": "t_struct(Counter)1683_storage"
      },
      {
        "astId": 2869,
        "contract": "contracts/LottusNFT.sol:LottusNFT",
        "label": "lotteryContract",
        "offset": 0,
        "slot": "9",
        "type": "t_contract(ILottusLottery)2855"
      },
      {
        "astId": 2875,
        "contract": "contracts/LottusNFT.sol:LottusNFT",
        "label": "hasClaimedNFT",
        "offset": 0,
        "slot": "10",
        "type": "t_mapping(t_address,t_mapping(t_uint256,t_bool))"
      },
      {
        "astId": 2877,
        "contract": "contracts/LottusNFT.sol:LottusNFT",
        "label": "winnerNFTMinted",
        "offset": 0,
        "slot": "11",
        "type": "t_bool"
      },
      {
        "astId": 2879,
        "contract": "contracts/LottusNFT.sol:LottusNFT",
        "label": "winnerMetadataCID",
        "offset": 0,
        "slot": "12",
        "type": "t_string_storage"
      },
      {
        "astId": 2881,
        "contract": "contracts/LottusNFT.sol:LottusNFT",
        "label": "participantMetadataCID",
        "offset": 0,
        "slot": "13",
        "type": "t_string_storage"
      }
    ],
    "types": {
      "t_address": {
        "encoding": "inplace",
        "label": "address",
        "numberOfBytes": "20"
      },
      "t_bool": {
        "encoding": "inplace",
        "label": "bool",
        "numberOfBytes": "1"
      },
      "t_contract(ILottusLottery)2855": {
        "encoding": "inplace",
        "label": "contract ILottusLottery",
        "numberOfBytes": "20"
      },
      "t_mapping(t_address,t_bool)": {
        "encoding": "mapping",
        "key": "t_address",
        "label": "mapping(address => bool)",
        "numberOfBytes": "32",
        "value": "t_bool"
      },
      "t_mapping(t_address,t_mapping(t_address,t_bool))": {
        "encoding": "mapping",
        "key": "t_address",
        "label": "mapping(address => mapping(address => bool))",
        "numberOfBytes": "32",
        "value": "t_mapping(t_address,t_bool)"
      },
      "t_mapping(t_address,t_mapping(t_uint256,t_bool))": {
        "encoding": "mapping",
        "key": "t_address",
        "label": "mapping(address => mapping(uint256 => bool))",
        "numberOfBytes": "32",
        "value": "t_mapping(t_uint256,t_bool)"
      },
      "t_mapping(t_address,t_uint256)": {
        "encoding": "mapping",
        "key": "t_address",
        "label": "mapping(address => uint256)",
        "numberOfBytes": "32",
        "value": "t_uint256"
      },
      "t_mapping(t_uint256,t_address)": {
        "encoding": "mapping",
        "key": "t_uint256",
        "label": "mapping(uint256 => address)",
        "numberOfBytes": "32",
        "value": "t_address"
      },
      "t_mapping(t_uint256,t_bool)": {
        "encoding": "mapping",
        "key": "t_uint256",
        "label": "mapping(uint256 => bool)",
        "numberOfBytes": "32",
        "value": "t_bool"
      },
      "t_mapping(t_uint256,t_string_storage)": {
        "encoding": "mapping",
        "key": "t_uint256",
        "label": "mapping(uint256 => string)",
        "numberOfBytes": "32",
        "value": "t_string_storage"
      },
      "t_string_storage": {
        "encoding": "bytes",
        "label": "string",
        "numberOfBytes": "32"
      },
      "t_struct(Counter)1683_storage": {
        "encoding": "inplace",
        "label": "struct Counters.Counter",
        "members": [
          {
            "astId": 1682,
            "contract": "contracts/LottusNFT.sol:LottusNFT",
            "label": "_value",
            "offset": 0,
            "slot": "0",
            "type": "t_uint256"
          }
        ],
        "numberOfBytes": "32"
      },
      "t_uint256": {
        "encoding": "inplace",
        "label": "uint256",
        "numberOfBytes": "32"
      }
    }
  }
}